:1010000017EF15F0000902430002010080320904C5
:101010000000010202010005240010010424020264
:1010200005240600010524010001070582030800CC
:101030000209040100020A0000000705030208007B
:10104000000705810240000036034D00690063007F
:1010500072006F0063006800690070002000540097
:101060006500630068006E006F006C006F00670031
:1010700079002C00200049006E0063002E00120150
:10108000000202000008D8040A0000010102000169
:101090000E03550053004200740069006E00040303
:0410A000090400003F
:1028FC00000EACEC14F0120047C001F048C002F01E
:10290C001200CDEC14F0840ED56E1200016E01C0D5
:10291C00C9FFC7A0FED7C9501200036E03C001F057
:10292C00000E3AEC15F01200020118BF02D0010E95
:10293C001200000E12008B9CB00E8CEC14F0FF0EEB
:10294C008CEC14F0026E8B8C02501200016E01C0E4
:10295C00A9FF000EA66E010EA66EA8CF02F00250C3
:10296C001200366E3650186E196A1A6A1B6A020EFD
:10297C001C6E34EC16F012008B9CA00E8CEC14F038
:10298C00FF0E8CEC14F0026E8B8C02501200000EB9
:10299C00D76E000ED66E000E466E000E456E000E03
:1029AC00486E000E476E1200036E8B9C020E8CEC70
:1029BC0014F003508CEC14F002508CEC14F08B8C53
:1029CC001200026E8B9C030E8CEC14F002508CECFB
:1029DC0014F0FF0E8CEC14F0036E8B8C0350120071
:1029EC00046E8B9C050E8CEC14F004508CEC14F0E3
:1029FC0002508CEC14F003508CEC14F08B8C120005
:102A0C00066E06C002F02A0EDAEC14F004C002F0D6
:102A1C00290EDAEC14F005C002F0280EDAEC14F0F2
:102A2C00120001EE00F0810EEE6AE806FDE100EE08
:102A3C003BF0190EEE6AE806FDE1000EF86E00019F
:102A4C0019EF19F009D016C0D9FF17C0DAFFDF5003
:102A5C004EEC15F0164A172A16C0D9FF17C0DAFF2C
:102A6C00DF50D8B41200EFD7026E02C0A9FF01C02C
:102A7C00A8FF040EA66EF2507F0BF26E550EA76ED9
:102A8C00AA0EA76E020EA66EF2507F09F26E12000D
:102A9C00156E800E4F18D8B412005050010D000E58
:102AAC00F324D96E010EF420DA6E15C0DFFF502A24
:102ABC00800E5018D8A402D0000E506E4F2AFAEC9B
:102ACC0019F012005250010DA00EF324D96E020E13
:102ADC00F420DA6EDF50016E522A5250020119199D
:102AEC00D8A408D0080E0201196F800E0201186FCD
:102AFC00000E526E015012000A50085C0B5009581F
:102B0C00D8B004D008C00AF009C00BF00AC04BF0D2
:102B1C000BC04CF006C042F007C043F042504310CB
:102B2C00D8A4000E446E79EC16F00A50120045C081
:102B3C0001F046C002F0011E021E014A022AD650C4
:102B4C000126D7500222780E015C010E0258D8A043
:102B5C001200770E4526010E4622474A482A610E7E
:102B6C00475CEA0E4858D8A01200000E486E000EC2
:102B7C00476E1200076E0750FF0A026E200EDAEC49
:102B8C0014F00450FF0AE00B026E210EDAEC14F084
:102B9C00000E026E220EDAEC14F0000E026E230E02
:102BAC00DAEC14F00550FF0A026E240EDAEC14F085
:102BBC000650FF0AE00B026E250EDAEC14F0000E44
:102BCC00026E260EDAEC14F0000E026E270EDAEC12
:102BDC0014F01200076E07C002F0000EDAEC14F0CD
:102BEC000450E00B026E010EDAEC14F007C002F098
:102BFC00040EDAEC14F00450E00B0809026E050E1A
:102C0C00DAEC14F005C002F0080EDAEC14F0065001
:102C1C00E00B026E090EDAEC14F005C002F0100E97
:102C2C00DAEC14F00650E00B0809026E110EDAEC27
:102C3C0014F0000E026E140EDAEC14F0000E026E9C
:102C4C00150EDAEC14F0000E026E180EDAEC14F01D
:102C5C00000E026E190EDAEC14F012001C50010D6D
:102C6C00210EF324D96E000EF420DA6E000EDF6E06
:102C7C002FD018500F0B356E090E356403D035501C
:102C8C00370F02D03550300F356E1C50010D210E10
:102C9C00F324D96E000EF420DA6E35C0DFFF18C0B5
:102CAC001DF019C01EF01AC01FF01BC020F0050E3D
:102CBC0005D0D89020321F321E321D32E82EF9D7A3
:102CCC001DC018F01EC019F01FC01AF020C01BF058
:102CDC001C061C28D8A4CDD7210E166E000E176E1C
:102CEC0028EC15F012004B504C10D8B412004BC00D
:102CFC0004F04CC005F0055004E1090E045CD8A0AA
:102D0C0004D0000E056E080E046E000E036E1BD070
:102D1C0042C0F6FF43C0F7FF44C0F8FF0350010D5B
:102D2C00880EF324D96E020EF420DA6E0800F5CF6B
:102D3C00DFFF010E4226000E4322000E44224B06FA
:102D4C00D8A04C06032A0350016E026A0450015CA1
:102D5C0005500258D8A0DCD704C005F2020104AD1E
:102D6C0004D0880E0201046F1200C80E0201046F19
:102D7C0012004F50D8B4120049504A10D8B4120067
:102D8C0002010CBF12004FC003F03F0E036402D0CF
:102D9C003F0E036E4F5000085024800F7F0B026EC5
:102DAC00000E016E1AD00250010D000EF324D96EE4
:102DBC00010EF420DA6E0150010DA80EF324E16E21
:102DCC00020EF420E26EDFCFE7FF022A800E02181B
:102DDC00D8A402D0000E026E012A0350015CD8A0C8
:102DEC00E2D703C00DF203504F5E02010CAD04D0CC
:102DFC00880E02010C6F1200C80E02010C6F12003B
:102E0C00800E0201006F080E0201016F800E02019C
:102E1C00026F020E0201036F000E0201046F080E16
:102E2C000201056F880E0201066F020E0201076F88
:102E3C00400E02010C6F400E02010D6FA80E020134
:102E4C000E6F020E02010F6F000E0201146F080EBE
:102E5C000201156F980E0201166F020E0201176F18
:102E6C00800E0201186F080E0201196FA00E0201EC
:102E7C001A6F020E02011B6F160E0F01536F1A0E02
:102E8C000F01546F1A0E0F01556F1C0E0F01566F68
:102E9C00140E616E080E646E1200400EC76E210E89
:102EAC00C66EC9CF04F0000E046E9388949C949E59
:102EBC00939C8B8C043EFED78B9CC00E8CEC14F038
:102ECC008B8C043EFED7850E026E0F0EDAEC14F0DE
:102EDC00000E026E600EDAEC14F0000E026E700E34
:102EEC00DAEC14F0000E026E200EDAEC14F0000E88
:102EFC00026E210EDAEC14F0000E026E220EDAECE9
:102F0C0014F0000E026E230EDAEC14F0000E026EBA
:102F1C00240EDAEC14F0000E026E250EDAEC14F02E
:102F2C00000E026E260EDAEC14F0000E026E270E66
:102F3C00DAEC14F0030E026E2B0EDAEC14F0120025
:102F4C000F6E56D07E0E066E100E076E000E096EBA
:102F5C00120E086E0DC00AF00EC00BF082EC15F0CC
:102F6C001200050E066E100E076E000E096E430E53
:102F7C00086E0DC00AF00EC00BF082EC15F01200BA
:102F8C009E0E066E100E076E000E096E040E086E75
:102F9C000DC00AF00EC00BF082EC15F01200480EBA
:102FAC00066E100E076E000E096E360E086E0DC002
:102FBC000AF00EC00BF082EC15F01200900E066EAB
:102FCC00100E076E000E096E0E0E086E0DC00AF084
:102FDC000EC00BF082EC15F012000C50000AD8B4A5
:102FEC00CFD7010AD8B4DBD7030AD8B4E7D70AD0B5
:102FFC000F50010AD8B4A6D7030AD8B4B2D7010A25
:10300C00D8B4EBD7000E120004C0D9FF05C0DAFF0C
:10301C00DE6ADE6ADE6ADD6A64D001C0D9FF02C0F6
:10302C00DAFFDF50D8A402D0000E120004C0D9FF82
:10303C0005C0DAFF040ED890DE36DE36DE36DD361D
:10304C00D906D906E82EF7D701C0D9FF02C0DAFF9E
:10305C002F0EDF6409D001C0D9FF02C0DAFF3A0E8F
:10306C00DF6002D0D00E1FD001C0D9FF02C0DAFF42
:10307C00400EDF6409D001C0D9FF02C0DAFF470E51
:10308C00DF6002D0C90E0FD001C0D9FF02C0DAFF39
:10309C00600EDF6422D001C0D9FF02C0DAFF670ED8
:1030AC00DF601BD0A90E066EFF0E076E01C0D9FFA4
:1030BC0002C0DAFFDF50086E096A06500826075076
:1030CC00092204C0D9FF05C0DAFF0850DE260950DA
:1030DC00DE22000EDE22DE2202D0000E1200014A99
:1030EC00022A03060328D8A498D7010E1200010E59
:1030FC00146E10C0D9FF11C0DAFF720EDE18D8B4EE
:10310C000AD010C0D9FF11C0DAFF520EDE18D8B4A5
:10311C0002D0000E146E14B002D01F9001D01F808C
:10312C0010C0D9FF11C0DAFF5A0EDF6003D01F8226
:10313C00080E02D01F92030E156E010E1024016EA4
:10314C00000E1120026E15C003F0170E046E000E57
:10315C00056E0AEC18F00009D8A402D0000E12007B
:10316C0017C01BF018C01CF019C01DF01AC01EF0BF
:10317C001550126E136A010E1226000E13221250F5
:10318C001024016E13501120026E010E036E170EE7
:10319C00046E000E056E0AEC18F00009D8A402D0DB
:1031AC00000E120017C020F01FB036D0000E166EA5
:1031BC002FD01650020D1550126E136AF3501226B2
:1031CC00F4501322020E1226000E13221250102459
:1031DC00016E13501120026E020E036E170E046E58
:1031EC00000E056E0AEC18F00009D8A402D0000EEF
:1031FC0012001650010D060EF326000EF4221B0EC3
:10320C00F324D96E000EF420DA6E17C0DFFF162AF5
:10321C002050165CD8A0CDD71B0E036E000E046E8A
:10322C00F3EC1AF0120053EC17F0300ED36E000EC4
:10323C007E6E000E7F6E939A8A9A87EC14F006ECE1
:10324C0017F0000E0101EB6FFAEC19F09DEC15F084
:10325C0034D068EC15F00101EA6F0D0E0101EA198A
:10326C00D8A415D00101EB51010D810EF324D96EB8
:10327C00010EF420DA6E000EDF6E810E376E010E39
:10328C00386E45EC1DF0000E0101EB6F16D00A0EE6
:10329C000101EA19D8B411D00101EB51010D810ED5
:1032AC00F324D96E010EF420DA6EEAC1DFFF630E4F
:1032BC000101EB6102D00101EB2B9AEC14F0000937
:1032CC00D8A4C7D74E50D8B477D082A46CD074D0C1
:1032DC0082EC14F001C0E5F102C0E6F10101F0A1AD
:1032EC0002D0720E01D0740E0101E86F0101F0A33F
:1032FC0005D0200E0101E85F080E01D0030E01017C
:10330C00E76F0101E8514EEC15F0ECC118F0EDC17E
:10331C0019F0EEC11AF0EFC11BF0E7C11CF034EC50
:10332C0016F00101F151186E196A1A6A1B6A010E26
:10333C001C6E34EC16F00101F0B124D0000E01012A
:10334C00E96F1AD00101E951010D060EF326000EAA
:10335C00F422EC0EF324D96E010EF420DA6EDF5059
:10336C003A6E3A50186E196A1A6A1B6A020E1C6E73
:10337C0034EC16F00101E92B0101F1510101E95D79
:10338C00D8A0E0D701018051D8B40AD0E5C118F01B
:10339C00E6C119F01A6A1B6A040E1C6E34EC16F0A6
:1033AC000D0E4EEC15F0EC0E056E010E066EFAECE1
:1033BC001BF00009D8A48CD74E50D8B403D03A6A6D
:1033CC003A2A01D03A6A3A3A3A468A503A18DF0B0E
:1033DC003A188A6E80B638D7000E646EFA0E00F07A
:1033EC00E82EFDD7FF0030D7BFEC16F062A6120016
:1033FC006350D8A4E2D002010041E8423F0B0F0B0E
:10340C000D0AD8A4B4D0000E0201046F000E020104
:10341C00046F80C210F0600E1016D8B434D054D0A3
:10342C0082C20CF002018751106E020186510D6EA2
:10343C0010C00EF002018351A6EC17F00009D8A4BD
:10344C00B5D07ED082C253F079D00201046FAED0D9
:10345C0082C251F0000E4A6E010E496E6FD051C0FF
:10346C0088F207D00201056FC80EEFD7000E0201DB
:10347C00886F010EF7D7000E0201886F000E020153
:10348C00896F020EEFD702018151000AD8B4F3D72D
:10349C00010AD8B453D0020AD8B450D0060AD8B412
:1034AC00D1D7030AD8B4BCD70E0AD8B4D8D7010ADE
:1034BC00D8B4CED7030AD8B4D9D71B0AD8B43ED0C7
:1034CC00030AD8B4D8D73CD002018051600B200A33
:1034DC00D8B43BD06BD0000E126E070E126401D024
:1034EC000CD01250010D880EF324D96E020EF4206C
:1034FC00DA6E000EDF6E122AF0D7080EB3D7010E6B
:10350C004D6E1CD0000E136E060E136401D014D039
:10351C001350010D3B0EF324D96E000EF420DA6E1D
:10352C001350010D880EF324E16E020EF420E26EAE
:10353C00DFCFE7FF132AE8D7070E94D7000E92D7F8
:10354C00000E0201056FCC0E80D702018151000ADA
:10355C00D8B4F4D7010AD8B4BED7210AD8B4CFD77F
:10356C00010AD8B4CFD7030AD8B4E8D7E9D74D505D
:10357C00D8B41CD0000E146E060E146401D014D0F6
:10358C001450010D800EF324D96E020EF420DA6E65
:10359C001450010D3B0EF324E16E000EF420E26E8C
:1035AC00DFCFE7FF142AE8D7000E4D6E080E02019C
:1035BC00016F800E0201006F0DD0040E6318D8A4A9
:1035CC0009D05350D8B404D053C05CFF000E536ED6
:1035DC0079EC16F0649862961200C2EC14F00E6E40
:1035EC0020EE05F00350D9260450DA22080EDF64D1
:1035FC0002D0000E12000EB402D0000E07D00EB88E
:10360C0002D0020E03D00EBC03D0040E0F6E02D0FB
:10361C00000E12008B9C0F5040098CEC14F020EE25
:10362C0004F00350D9260450DA22DFA268D003C07C
:10363C00D9FF04C0DAFFDECF05F0DECF06F0DECF17
:10364C0007F0DECF08F0160E05D0D89008320732FE
:10365C0006320532E82EF9D705508CEC14F003C075
:10366C00D9FF04C0DAFFDECF05F0DECF06F0DECFE7
:10367C0007F0DECF08F0110E05D0D89008320732D3
:10368C0006320532E82EF9D7030E051603C0D9FF12
:10369C0004C0DAFFDECF09F0DECF0AF0DECF0BF08C
:1036AC00DECF0CF00E0E05D0D8900C320B320A3255
:1036BC000932E82EF9D70950E00B051008098CECFB
:1036CC0014F003C0D9FF04C0DAFFDECF05F0DECF63
:1036DC0006F0DECF07F0DECF08F006C005F007C01D
:1036EC0006F008C007F0086A05508CEC14F003C013
:1036FC00D9FF04C0DAFFDF508CEC14F02DD003C0DE
:10370C00D9FF04C0DAFFDECF05F0DECF06F0DECF46
:10371C0007F0DECF08F0040E05D0D890083207323F
:10372C0006320532E82EF9D705508CEC14F003C0A4
:10373C00D9FF04C0DAFFDF50056E050E066ED89077
:10374C000536062EFCD705508CEC14F0000E8CECD4
:10375C0014F0000E8CEC14F020EE04F00350D9267B
:10376C000450DA22DFA00BD020EE05F00350D9264E
:10377C000450DA22DF5040098CEC14F026D020EEF5
:10378C0005F00350D9260450DA22DF508CEC14F0EB
:10379C00000E0D6E10D00D50010D060EF326000E0E
:1037AC00F422F3500324D96EF4500420DA6EDF5067
:1037BC008CEC14F00D2A20EE05F00350D9260450A1
:1037CC00DA22DE500D5CD8A0E6D78B8C00F08B9CF7
:1037DC000F50D8A402D0010E0F6E0F5080098CEC44
:1037EC0014F08B8C010E1200A1EC14F0126E12ACC2
:1037FC0002D0000E03D012AE03D0040E116E02D014
:10380C00000E120012C007F0D8900732D890073281
:10381C00D8900732010E071620EE04F00550D92679
:10382C000650DA22DF500718FE0B0718DF6E12C0A5
:10383C0007F0073A0F0E0716010E071620EE04F0DC
:10384C000550D9260650DA220746DF500718FD0B23
:10385C000718DF6E8B9C115090098CEC14F020EE45
:10386C0004F00550D9260650DA22DFA28FD0FF0EC5
:10387C008CEC14F0076E07C008F0096A0A6A0B6A30
:10388C00150ED890083609360A360B36E82EF9D7BD
:10389C0005C0D9FF06C0DAFF08C0DEFF09C0DEFF95
:1038AC000AC0DEFF0BC0DEFFFF0E8CEC14F0076EBF
:1038BC0007500C6E0D6A0E6A0F6AE00E0C14076E40
:1038CC00000E0D14086E000E0E14096E000E0F146F
:1038DC000A6E0D0ED8900736083609360A36E82ED1
:1038EC00F9D705C0D9FF06C0DAFF0750DE12085021
:1038FC00DE120950DE120A50DE12030E0C14076E93
:10390C00000E0D14086E000E0E14096E000E0F142E
:10391C000A6E08C00AF007C009F0086A076A05C0F9
:10392C00D9FF06C0DAFF0750DE120850DE1209502C
:10393C00DE120A50DE12FF0E8CEC14F0076E07C07C
:10394C0008F0096A0A6A0B6A0AC00BF009C00AF08F
:10395C0008C009F0086A05C0D9FF06C0DAFF085094
:10396C00DE120950DE120A50DE120B50DE12FF0E70
:10397C008CEC14F0076E075005C0D9FF06C0DAFFB7
:10398C00DE12000EDE12DE12DE1237D0FF0E8CECD1
:10399C0014F0076E07C008F0096A0A6A0B6A030E76
:1039AC00D890083609360A360B36E82EF9D705C0FA
:1039BC00D9FF06C0DAFF08C0DEFF09C0DEFF0AC06F
:1039CC00DEFF0BC0DEFFFF0E8CEC14F0076E050E55
:1039DC00086ED8900732082EFCD7075005C0D9FFC7
:1039EC0006C0DAFFDE12000EDE12DE12DE12FF0E51
:1039FC008CEC14F0FF0E8CEC14F020EE05F005505E
:103A0C00D9260650DA22FF0E8CEC14F00F0BDF6E69
:103A1C0020EE04F00550D9260650DA22DFB01ED075
:103A2C00000E106E11D01050010D060EF326000E74
:103A3C00F422F3500524D96EF4500620DA6EFF0EF2
:103A4C008CEC14F0DF6E102A20EE05F00550D92610
:103A5C000650DA22DE50105CD8A0E5D78B8C1150C2
:103A6C00D8A402D0010E01D0020E116E11C002F0CA
:103A7C00000E036E2C0EF6EC14F0010E1200070E65
:103A8C000001A16F6ED24E50D8B449D0AED2AD0E5B
:103A9C00046E060E056EFB0E06EC15F018D1AD0E7D
:103AAC00046E060E056EDD0E06EC15F010D1AD0E93
:103ABC00046E060E056ECB0E06EC15F008D1AD0E9D
:103ACC00046E060E056EC50E06EC15F000D1A40EA4
:103ADC00046E040E056EC50E06EC15F0F8D0A40E9F
:103AEC00046E040E056EC20E06EC15F0F0D09A0EA4
:103AFC00046E030E056EC10E06EC15F0E8D0A30E95
:103B0C00046E040E056EC00E06EC15F0E0D09A0E95
:103B1C00046E030E056EC00E06EC15F0D8D020EE28
:103B2C0001F03750D9263850DA22DF50300AD8B499
:103B3C00AED7010AD8B4B3D7030AD8B4B8D7010AA0
:103B4C00D8B4BDD7070AD8B4C2D7010AD8B4C7D7DE
:103B5C00030AD8B4CCD7010AD8B4D1D70F0AD8B439
:103B6C00D6D743D24E50D8A440D2010E3724016E82
:103B7C00000E3820026E020E036E640E046E000EF0
:103B8C00056E0AEC18F00009D8B42FD2030E3724B6
:103B9C00016E000E3820026E020E036E680E046E6B
:103BAC00000E056E0AEC18F00009D8B41ED2050EF2
:103BBC003724016E000E3820026E020E036E6C0E5E
:103BCC00046E000E056E0AEC18F00009D8B40DD284
:103BDC0068C004F06CC005F00001645106EC15F0EF
:103BEC0076D0010E3724016E000E3820026E020EC4
:103BFC00036E700E046E000E056E0AEC18F00009D0
:103C0C00D8B4F3D100017051E7EC14F00001606FEF
:103C1C0000016051B7EC14F05AD0010E3724016E3C
:103C2C00000E3820026E020E036E740E046E000E2F
:103C3C00056E0AEC18F00009D8B4D7D1030E37245E
:103C4C00016E000E3820026E020E036E780E046EAA
:103C5C00000E056E0AEC18F00009D8B4C6D178C075
:103C6C0002F000017451DAEC14F031D0560E4EEC27
:103C7C0015F0010EB7EC14F0000EB7EC14F027D0D1
:103C8C00760E4EEC15F0010EB7EC14F0040EB7ECFA
:103C9C0014F01DD04E0E4EEC15F0FF0E186EFF0EEC
:103CAC00196E000E1A6E000E1B6E040E1C6E34EC98
:103CBC0016F00DD04E50D8A498D1E00E026E000E26
:103CCC00036E0F0EF6EC14F0CDEC14F00ED00D0EBE
:103CDC000001A16F8AD14E50D8A487D1E00E026E9C
:103CEC00400E036E0F0EF6EC14F0010E17D04E5072
:103CFC00D8A47BD1E00E026E600E036E0F0EF6ECB4
:103D0C0014F0020E0BD04E50D8B46FD1E00E026EF0
:103D1C00800E036E0F0EF6EC14F0000E4E6ED7D71D
:103D2C004E04D8A462D137C010F038C011F07DEC2D
:103D3C0018F00009D8B459D137C0D9FF38C0DAFF10
:103D4C005A0EDF6004D05A0E4EEC15F0C0D77A0E26
:103D5C004EEC15F0BCD72D0EE7EC14F00001A06F63
:103D6C00000E0001636F0001A0A102D00001638569
:103D7C00A0C039F0C00E3916D8B402D00001638748
:103D8C00A0C039F0180E3916D8B402D00001638BDC
:103D9C000001A0AB02D00001638F460E4EEC15F073
:103DAC0000016351B7EC14F092D7010E3724016E69
:103DBC00000E3820026E010E036E7C0E046E000E97
:103DCC00056E0AEC18F00009D8B40FD100017C5133
:103DDC0000017D1100017E1100017F11D8B402D0C9
:103DEC00010E01D0000E0101806F71D74E50D8A486
:103DFC00FCD0010E3724016E000E3820026E020E2C
:103E0C00036E800E046E000E056E0AEC18F00009AD
:103E1C00D8B4EBD0030E3724016E000E3820026E9E
:103E2C00020E036E840E046E000E056E0AEC18F082
:103E3C000009D8B4DAD0050E3724016E000E3820F4
:103E4C00026E020E036E880E046E000E056E0AECF6
:103E5C0018F00009D8B4C9D0070E3724016E000E33
:103E6C003820026E020E036E8C0E046E000E056E70
:103E7C000AEC18F00009D8B4B8D084C004F088C09B
:103E8C0005F08CC006F000018051C0EC15F01FD776
:103E9C004E50D8A4AAD0010E3724016E000E382043
:103EAC00026E020E036E900E046E000E056E0AEC8E
:103EBC0018F00009D8B499D0030E3724016E000E07
:103ECC003820026E020E036E940E046E000E056E08
:103EDC000AEC18F00009D8B488D0050E3724016E0E
:103EEC00000E3820026E020E036E980E046E000E49
:103EFC00056E0AEC18F00009D8B477D0070E3724F9
:103F0C00016E000E3820026E020E036E9C0E046EC3
:103F1C00000E056E0AEC18F00009D8B466D094C0F7
:103F2C0004F098C005F09CC006F000019051F0EC34
:103F3C0015F0CDD620EE01F03750D9263850DA22C4
:103F4C00DF500001616F0001615193EC14F0BFD69A
:103F5C007EEC14F00001626F00016251B7EC14F0BA
:103F6C00B6D637C0D9FF38C0DAFFDF50430AD8B411
:103F7C00CAD6050AD8B4EFD6010AD8B432D60B0A81
:103F8C00D8B4B5D6010AD8B483D7030AD8B482D62C
:103F9C00010AD8B48FD61E0AD8B4CCD7030AD8B429
:103FAC00BFD6010AD8B46FD5070AD8B4B9D6020A5D
:103FBC00D8B45CD6010AD8B430D60D0AD8B4F5D62C
:103FCC00360AD8B488D6010AD8B410D71C0AD8B48B
:103FDC00BFD7030AD8B4A4D6010AD8B4C3D5070AEC
:103FEC00D8B49ED6020AD8B44BD60001A1514EECDF
:043FFC0015F01200AA
:00000001FF
